:100000000C9474000C9495000C9495000C9495003D
:100010000C9495000C9495000C9495000C9495000C
:100020000C9495000C9495000C9495000C949500FC
:100030000C9495000C9495000C9495000C949500EC
:100040000C9495000C9495000C9495000C949500DC
:100050000C9495000C9495000C9495000C94AA03B4
:100060000C9495000C9495000C9495000C949500BC
:100070000C9495000C9495000C9495000C949500AC
:100080000C9495000C9495000C9495000C9495009C
:100090000C9495000C9495000C9495000C9495008C
:1000A0000C9495000C9495000C9495000C9495007C
:1000B0000C9495000C9495000C9495000C9495006C
:1000C0000C9495000C9495000C9495000C9495005C
:1000D0000C9495000C9495000C9495000C9495004C
:1000E0000C9495000C94970011241FBECFEFD1E221
:1000F000DEBFCDBF00E00CBF12E0A0E0B2E0EAE35B
:10010000FBE000E00BBF02C007900D92AC30B107DE
:10011000D9F722E0ACE0B2E001C01D92A931B207EC
:10012000E1F70E949A030C9470050C9400008F92E2
:100130009F92AF92BF92CF92DF92EF92FF921F9366
:10014000CF93DF935C016B01DC011296ED91FC9182
:100150001397E280F38084809580A4014F5F5F4F06
:10016000B701C6010E943E0111E0811110E0A40117
:1001700041505109B701C6010E943E01C1E0811101
:10018000C0E0A401B7016F5F7F4FC6010E943E012E
:10019000D1E08111D0E0B70161507109A401C6011D
:1001A0000E943E0191E0811190E0D5011296ED91FF
:1001B000FC911397218532852130310579F024F4A3
:1001C0002115310541F013C02230310551F02330A3
:1001D000310551F00CC01123C9F041C0DD23C9F035
:1001E0003EC0CC23C9F03BC09923C9F038C02130B0
:1001F000310579F024F421153105A1F407C022302E
:10020000310551F02330310569F409C0DD23C1F017
:1002100023C0CC23B9F020C09923B1F01DC0112315
:10022000A9F01AC02130310569F01CF4232BB9F470
:1002300007C02230310541F02330310581F406C07A
:10024000892F05C0812F03C08D2F01C08C2F90E016
:1002500091958195910905C081E090E002C080E010
:1002600090E0DF91CF911F91FF90EF90DF90CF90C2
:10027000BF90AF909F908F90089508950F931F9314
:10028000CF93DF938C01CB01EA01FB0177FD31961F
:10029000BF0175956795AE01D7FF02C04F5F5F4FF5
:1002A00055954795F801A481B5814A9FF0014B9F70
:1002B000F00D5A9FF00D1124F7FD3196DF01B59531
:1002C000A795F80140815181FA01E60FF71FEA0F67
:1002D000FB1F208102E010E0B8010E947305FC01C1
:1002E000EE0FFF1FCE01B8010E947305AF01482B2E
:1002F000592B41305105F1F02CF4452B01F5322FEB
:1003000033701DC04230510579F043305105B9F4C6
:10031000822F220F990B807C992726E0959587954F
:100320002A95E1F7382F0BC0822F8C70382F369525
:10033000369505C0822F8073382F32953F70832FFA
:10034000DF91CF911F910F910895CF92DF92EF929D
:10035000FF920F931F93CF93DF93EC01CB018A01A0
:10036000DB0177FD1196AD0155954795B80117FF53
:1003700002C06F5F7F4F75956795EC81FD816E9F21
:10038000D0016F9FB00D7E9FB00D1124B7FD119667
:10039000B595A795A40FB51F0990D881C02DCA0F98
:1003A000DB1F3881E32F032E000CFF0B2F5F237020
:1003B00042E0C42ED12CB6010E9473057C01EE0CE4
:1003C000FF1CC801B6010E9473058E299F29813048
:1003D0009105B9F034F4892BE1F4EC7FFF27E22B8F
:1003E00018C08230910549F0039799F43F7380E477
:1003F000289FF0011124E32B0CC0E37FFF2784E04A
:1004000003C0EF7CFF2780E1289F90011124E22B9D
:10041000F32BE883DF91CF911F910F91FF90EF9025
:10042000DF90CF900895CF92DF92EF92FF920F93DB
:100430001F93CF93DF93EC0169017D836C835B8312
:100440004A83649FC001659F900D749F900D112495
:1004500097FD03967C01F594E794F594E794C70122
:100460000E944104E80EF91EFC01EE15FF0511F093
:100470001192FBCF998388838BE090E00E943F0428
:10048000FC018A819B8197FD0196959587952C812A
:100490003D8124503109338322839583848381E015
:1004A00090E097838683808783E090E092878187BE
:1004B000D182C082FF83EE838BE090E00E943F04F4
:1004C000FC018A819B8197FD0196959587950197FF
:1004D00023E030E0338322839583848382E090E0BD
:1004E0009783868381E0808781E090E0928781878F
:1004F00011830083F987E8878E819F81D601139647
:100500009C938E931297D8011396FC93EE931297B7
:1005100000E010E08C819D8108171907ACF420E001
:1005200030E040E050E0B801CE010E94A5014A81D0
:100530005B814150510920E030E0B801CE010E94BA
:10054000A5010F5F1F4FE6CF00E010E08A819B817D
:1005500008171907ACF420E030E0A80160E070E073
:10056000CE010E94A5016C817D816150710920E05E
:1005700030E0A801CE010E94A5010F5F1F4FE6CF1A
:10058000DF91CF911F910F91FF90EF90DF90CF906F
:100590000895CF93DF93EC0188819981DC01ED917F
:1005A000FC910190F081E02D199529853A85820F03
:1005B000931F049664E070E00E9473059A87898710
:1005C00081309105B1F034F4892BC1F48C819D8187
:1005D00001960CC08230910531F0039779F48A813D
:1005E0009B81019709C08C819D8101979D838C839C
:1005F00005C08A819B8101969B838A83DF91CF917D
:100600000895EF92FF920F931F93CF93DF9384E0AF
:1006100090E00E943F04EC011B821A828AE0E82EDF
:1006200082E0F82EF982E88284E090E00E943F04A4
:100630008C01FC0113821282F182E0828BE090E057
:100640000E943F047C019E014CE150E064E270E0B6
:100650000E941302C701DF91CF911F910F91FF906C
:10066000EF900895FC01CB012681378144815581AB
:10067000628173810C94A5010F931F93CF93DF9335
:10068000EC018B014C815D816A817B81C8010E94F4
:100690003E01811118C0F801A681B78140855185BE
:1006A00012962D913C911397FA018281938128171C
:1006B000390751F414962D913C91159784819581B9
:1006C0002817390709F41886DF91CF911F910F91F0
:1006D0000895CF93DF93EC01EE81FF8190859923FC
:1006E00021F0A885B98518969C919A879923F9F0ED
:1006F000BE01CF010E943203BE01888599850E9408
:100700003203BE018E819F810E94C902BE0188858D
:1007100099850E94C902BE018E819F810E943C037F
:10072000BE0188859985DF91CF910C943C03DF91C0
:10073000CF9108950E940103EC01CE010E9469034C
:10074000CE010E943D0164E670E080E090E00E94EE
:100750001904F3CF1F920F920FB60F9211242F930B
:100760003F938F939F93AF93BF9380910D0290918E
:100770000E02A0910F02B091100230910C0223E002
:10078000230F2D3720F40196A11DB11D05C026E8C9
:10079000230F0296A11DB11D20930C0280930D0220
:1007A00090930E02A0930F02B09310028091110259
:1007B00090911202A0911302B09114020196A11D12
:1007C000B11D8093110290931202A0931302B09373
:1007D0001402BF91AF919F918F913F912F910F90F4
:1007E0000FBE0F901F9018953FB7F894809111029B
:1007F00090911202A0911302B091140226B5A89B09
:1008000005C02F3F19F00196A11DB11D3FBFBA2FA2
:10081000A92F982F8827820F911DA11DB11DBC0102
:10082000CD0142E0660F771F881F991F4A95D1F7C7
:100830000895CF92DF92EF92FF92CF93DF936B01F7
:100840007C010E94F403EB01C114D104E104F10422
:1008500079F00E94F4036C1B7D0B683E7340A0F39B
:1008600081E0C81AD108E108F108C851DC4FECCF8B
:10087000DF91CF91FF90EF90DF90CF9008950C948F
:1008800043040C944304CF93DF938230910510F41A
:1008900082E090E0E0911702F091180220E030E051
:1008A000C0E0D0E0309711F14081518148175907DD
:1008B000C0F04817590761F482819381209719F09D
:1008C0009B838A832BC0909318028093170226C0C3
:1008D0002115310519F04217530718F49A01BE018A
:1008E000DF01EF010280F381E02DDCCF211531051E
:1008F00009F1281B390B2430310590F412968D91A3
:100900009C9113976115710521F0FB0193838283FC
:1009100004C09093180280931702FD01329644C0E0
:10092000FD01E20FF31F81939193225031092D9322
:100930003C933AC02091150230911602232B41F4CA
:100940002091020230910302309316022093150287
:1009500020910002309101022115310541F42DB79B
:100960003EB74091040250910502241B350BE091E3
:100970001502F0911602E217F307A0F42E1B3F0BAD
:100980002817390778F0AC014E5F5F4F2417350701
:1009900048F04E0F5F1F509316024093150281934B
:1009A000919302C0E0E0F0E0CF01DF91CF91089594
:1009B0000F931F93CF93DF93009709F48CC0FC0132
:1009C00032971382128200911702109118020115BA
:1009D000110581F420813181820F931F209115022E
:1009E000309116022817390779F5F0931602E09333
:1009F000150271C0D80140E050E0AE17BF0750F4B7
:100A000012962D913C911397AD012115310509F1F5
:100A1000D901F3CF9D01DA01338322836081718193
:100A2000860F971F8217930769F4EC01288139819B
:100A3000260F371F2E5F3F4F318320838A819B8192
:100A400093838283452B29F4F0931802E0931702D5
:100A500042C01396FC93EE931297ED014991599180
:100A60009E01240F351FE217F30771F480819181F5
:100A7000840F951F029611969C938E938281938189
:100A800013969C938E931297E0E0F0E0D8011296B3
:100A90008D919C911397009719F0F8018C01F6CF76
:100AA0008D919C9198012E5F3F4F820F931F209153
:100AB0001502309116022817390769F4309729F486
:100AC000109218021092170202C013821282109321
:100AD000160200931502DF91CF911F910F91089597
:100AE000F8940C949B0597FB072E16F4009407D0FE
:100AF00077FD09D00E94870507FC05D03EF490954C
:100B000081959F4F0895709561957F4F0895AA1B19
:100B1000BB1B51E107C0AA1FBB1FA617B70710F0E8
:100B2000A61BB70B881F991F5A95A9F7809590951A
:0A0B3000BC01CD010895F894FFCF39
:0C0B3A000000190280000000000097007D
:00000001FF
